{
  "contractName": "DecentralBank",
  "abi": [
    {
      "inputs": [
        {
          "internalType": "contract RWD",
          "name": "_rwd",
          "type": "address"
        },
        {
          "internalType": "contract Tether",
          "name": "_tether",
          "type": "address"
        }
      ],
      "stateMutability": "nonpayable",
      "type": "constructor"
    },
    {
      "inputs": [
        {
          "internalType": "address",
          "name": "",
          "type": "address"
        }
      ],
      "name": "hasStaked",
      "outputs": [
        {
          "internalType": "bool",
          "name": "",
          "type": "bool"
        }
      ],
      "stateMutability": "view",
      "type": "function",
      "constant": true
    },
    {
      "inputs": [
        {
          "internalType": "address",
          "name": "",
          "type": "address"
        }
      ],
      "name": "isStaking",
      "outputs": [
        {
          "internalType": "bool",
          "name": "",
          "type": "bool"
        }
      ],
      "stateMutability": "view",
      "type": "function",
      "constant": true
    },
    {
      "inputs": [],
      "name": "name",
      "outputs": [
        {
          "internalType": "string",
          "name": "",
          "type": "string"
        }
      ],
      "stateMutability": "view",
      "type": "function",
      "constant": true
    },
    {
      "inputs": [],
      "name": "owner",
      "outputs": [
        {
          "internalType": "address",
          "name": "",
          "type": "address"
        }
      ],
      "stateMutability": "view",
      "type": "function",
      "constant": true
    },
    {
      "inputs": [],
      "name": "rwd",
      "outputs": [
        {
          "internalType": "contract RWD",
          "name": "",
          "type": "address"
        }
      ],
      "stateMutability": "view",
      "type": "function",
      "constant": true
    },
    {
      "inputs": [
        {
          "internalType": "uint256",
          "name": "",
          "type": "uint256"
        }
      ],
      "name": "stakers",
      "outputs": [
        {
          "internalType": "address",
          "name": "",
          "type": "address"
        }
      ],
      "stateMutability": "view",
      "type": "function",
      "constant": true
    },
    {
      "inputs": [
        {
          "internalType": "address",
          "name": "",
          "type": "address"
        }
      ],
      "name": "stakingBalances",
      "outputs": [
        {
          "internalType": "uint256",
          "name": "",
          "type": "uint256"
        }
      ],
      "stateMutability": "view",
      "type": "function",
      "constant": true
    },
    {
      "inputs": [],
      "name": "tether",
      "outputs": [
        {
          "internalType": "contract Tether",
          "name": "",
          "type": "address"
        }
      ],
      "stateMutability": "view",
      "type": "function",
      "constant": true
    },
    {
      "inputs": [
        {
          "internalType": "uint256",
          "name": "_amount",
          "type": "uint256"
        }
      ],
      "name": "depositTokens",
      "outputs": [],
      "stateMutability": "payable",
      "type": "function",
      "payable": true
    }
  ],
  "bytecode": "0x60806040526040518060400160405280600e81526020017f446563656e7472616c2042616e6b000000000000000000000000000000000000815250600090805190602001906200005192919062000150565b503480156200005f57600080fd5b5060405162000f0538038062000f058339818101604052810190620000859190620002c3565b80600260006101000a81548173ffffffffffffffffffffffffffffffffffffffff021916908373ffffffffffffffffffffffffffffffffffffffff16021790555081600360006101000a81548173ffffffffffffffffffffffffffffffffffffffff021916908373ffffffffffffffffffffffffffffffffffffffff16021790555033600160006101000a81548173ffffffffffffffffffffffffffffffffffffffff021916908373ffffffffffffffffffffffffffffffffffffffff16021790555050506200036e565b8280546200015e9062000339565b90600052602060002090601f016020900481019282620001825760008555620001ce565b82601f106200019d57805160ff1916838001178555620001ce565b82800160010185558215620001ce579182015b82811115620001cd578251825591602001919060010190620001b0565b5b509050620001dd9190620001e1565b5090565b5b80821115620001fc576000816000905550600101620001e2565b5090565b600080fd5b600073ffffffffffffffffffffffffffffffffffffffff82169050919050565b6000620002328262000205565b9050919050565b6000620002468262000225565b9050919050565b620002588162000239565b81146200026457600080fd5b50565b60008151905062000278816200024d565b92915050565b60006200028b8262000225565b9050919050565b6200029d816200027e565b8114620002a957600080fd5b50565b600081519050620002bd8162000292565b92915050565b60008060408385031215620002dd57620002dc62000200565b5b6000620002ed8582860162000267565b92505060206200030085828601620002ac565b9150509250929050565b7f4e487b7100000000000000000000000000000000000000000000000000000000600052602260045260246000fd5b600060028204905060018216806200035257607f821691505b6020821081036200036857620003676200030a565b5b50919050565b610b87806200037e6000396000f3fe6080604052600436106100865760003560e01c80636f49712b116100595780636f49712b146101495780638da5cb5b14610186578063c93c8f34146101b1578063dd49756e146101ee578063fd5e6dd11461020a57610086565b806306fdde031461008b5780631a8972d3146100b65780635efc071a146100e157806361b8b5dc1461010c575b600080fd5b34801561009757600080fd5b506100a0610247565b6040516100ad919061071b565b60405180910390f35b3480156100c257600080fd5b506100cb6102d5565b6040516100d891906107bc565b60405180910390f35b3480156100ed57600080fd5b506100f66102fb565b60405161010391906107f8565b60405180910390f35b34801561011857600080fd5b50610133600480360381019061012e9190610856565b610321565b604051610140919061089c565b60405180910390f35b34801561015557600080fd5b50610170600480360381019061016b9190610856565b610339565b60405161017d91906108d2565b60405180910390f35b34801561019257600080fd5b5061019b610359565b6040516101a891906108fc565b60405180910390f35b3480156101bd57600080fd5b506101d860048036038101906101d39190610856565b61037f565b6040516101e591906108d2565b60405180910390f35b61020860048036038101906102039190610943565b61039f565b005b34801561021657600080fd5b50610231600480360381019061022c9190610943565b610643565b60405161023e91906108fc565b60405180910390f35b600080546102549061099f565b80601f01602080910402602001604051908101604052809291908181526020018280546102809061099f565b80156102cd5780601f106102a2576101008083540402835291602001916102cd565b820191906000526020600020905b8154815290600101906020018083116102b057829003601f168201915b505050505081565b600360009054906101000a900473ffffffffffffffffffffffffffffffffffffffff1681565b600260009054906101000a900473ffffffffffffffffffffffffffffffffffffffff1681565b60056020528060005260406000206000915090505481565b60076020528060005260406000206000915054906101000a900460ff1681565b600160009054906101000a900473ffffffffffffffffffffffffffffffffffffffff1681565b60066020528060005260406000206000915054906101000a900460ff1681565b600081116103e2576040517f08c379a00000000000000000000000000000000000000000000000000000000081526004016103d990610a1c565b60405180910390fd5b600260009054906101000a900473ffffffffffffffffffffffffffffffffffffffff1673ffffffffffffffffffffffffffffffffffffffff166323b872dd3330846040518463ffffffff1660e01b815260040161044193929190610a3c565b6020604051808303816000875af1158015610460573d6000803e3d6000fd5b505050506040513d601f19601f820116820180604052508101906104849190610a9f565b5080600560003373ffffffffffffffffffffffffffffffffffffffff1673ffffffffffffffffffffffffffffffffffffffff16815260200190815260200160002060008282546104d49190610afb565b92505081905550600660003373ffffffffffffffffffffffffffffffffffffffff1673ffffffffffffffffffffffffffffffffffffffff16815260200190815260200160002060009054906101000a900460ff16610590576004339080600181540180825580915050600190039060005260206000200160009091909190916101000a81548173ffffffffffffffffffffffffffffffffffffffff021916908373ffffffffffffffffffffffffffffffffffffffff1602179055505b6001600760003373ffffffffffffffffffffffffffffffffffffffff1673ffffffffffffffffffffffffffffffffffffffff16815260200190815260200160002060006101000a81548160ff0219169083151502179055506001600660003373ffffffffffffffffffffffffffffffffffffffff1673ffffffffffffffffffffffffffffffffffffffff16815260200190815260200160002060006101000a81548160ff02191690831515021790555050565b6004818154811061065357600080fd5b906000526020600020016000915054906101000a900473ffffffffffffffffffffffffffffffffffffffff1681565b600081519050919050565b600082825260208201905092915050565b60005b838110156106bc5780820151818401526020810190506106a1565b838111156106cb576000848401525b50505050565b6000601f19601f8301169050919050565b60006106ed82610682565b6106f7818561068d565b935061070781856020860161069e565b610710816106d1565b840191505092915050565b6000602082019050818103600083015261073581846106e2565b905092915050565b600073ffffffffffffffffffffffffffffffffffffffff82169050919050565b6000819050919050565b600061078261077d6107788461073d565b61075d565b61073d565b9050919050565b600061079482610767565b9050919050565b60006107a682610789565b9050919050565b6107b68161079b565b82525050565b60006020820190506107d160008301846107ad565b92915050565b60006107e282610789565b9050919050565b6107f2816107d7565b82525050565b600060208201905061080d60008301846107e9565b92915050565b600080fd5b60006108238261073d565b9050919050565b61083381610818565b811461083e57600080fd5b50565b6000813590506108508161082a565b92915050565b60006020828403121561086c5761086b610813565b5b600061087a84828501610841565b91505092915050565b6000819050919050565b61089681610883565b82525050565b60006020820190506108b1600083018461088d565b92915050565b60008115159050919050565b6108cc816108b7565b82525050565b60006020820190506108e760008301846108c3565b92915050565b6108f681610818565b82525050565b600060208201905061091160008301846108ed565b92915050565b61092081610883565b811461092b57600080fd5b50565b60008135905061093d81610917565b92915050565b60006020828403121561095957610958610813565b5b60006109678482850161092e565b91505092915050565b7f4e487b7100000000000000000000000000000000000000000000000000000000600052602260045260246000fd5b600060028204905060018216806109b757607f821691505b6020821081036109ca576109c9610970565b5b50919050565b7f616d6f756e742063616e6e6f7420626520300000000000000000000000000000600082015250565b6000610a0660128361068d565b9150610a11826109d0565b602082019050919050565b60006020820190508181036000830152610a35816109f9565b9050919050565b6000606082019050610a5160008301866108ed565b610a5e60208301856108ed565b610a6b604083018461088d565b949350505050565b610a7c816108b7565b8114610a8757600080fd5b50565b600081519050610a9981610a73565b92915050565b600060208284031215610ab557610ab4610813565b5b6000610ac384828501610a8a565b91505092915050565b7f4e487b7100000000000000000000000000000000000000000000000000000000600052601160045260246000fd5b6000610b0682610883565b9150610b1183610883565b9250827fffffffffffffffffffffffffffffffffffffffffffffffffffffffffffffffff03821115610b4657610b45610acc565b5b82820190509291505056fea26469706673582212206d496f23ffcd4cc263e011eb9f16adf9877b772308adc315e865d1fc0c19712264736f6c634300080e0033",
  "immutableReferences": {},
  "source": "\npragma solidity >= 0.5.0;\n\nimport './Tether.sol';\nimport './RWD.sol';\n\ncontract DecentralBank {\n\tstring public name = 'Decentral Bank';\n\taddress public owner;\n\tTether public tether;\n\tRWD public rwd;\n\n\taddress[] public stakers;\n\n\tmapping(address => uint) public stakingBalances;\n\tmapping(address => bool) public hasStaked;\n\tmapping(address => bool) public isStaking;\n\n\tconstructor(RWD _rwd, Tether _tether) {\n\t\ttether = _tether;\n\t\trwd = _rwd;\n\t\towner = msg.sender;\n\t}\n\n\t// staking function\n\tfunction depositTokens(uint256 _amount) public payable {\n\t\trequire(_amount > 0, 'amount cannot be 0');\n\n\t\t// transfer tether to this contract address for staking\n\t\ttether.transferFrom(msg.sender, address(this), _amount);\n\n\t\t// update staking balance\n\t\tstakingBalances[msg.sender] += _amount;\n\n\t\tif(!hasStaked[msg.sender]) {\n\t\t\tstakers.push(msg.sender);\n\t\t}\n\t\tisStaking[msg.sender] = true;\n\t\thasStaked[msg.sender] = true;\n\t}\n}",
  "sourcePath": "/home/oliver/code/learn/dapp/src/contracts/DecentralBank.sol",
  "compiler": {
    "name": "solc",
    "version": "0.8.14+commit.80d49f37.Emscripten.clang"
  },
  "schemaVersion": "3.4.7",
  "updatedAt": "2022-05-29T23:37:46.122Z",
  "networkType": "ethereum",
  "devdoc": {
    "kind": "dev",
    "methods": {},
    "version": 1
  },
  "userdoc": {
    "kind": "user",
    "methods": {},
    "version": 1
  }
}